{
  "contractName": "DappToken",
  "abi": [
    {
      "constant": true,
      "inputs": [],
      "name": "name",
      "outputs": [
        {
          "name": "",
          "type": "string"
        }
      ],
      "payable": false,
      "stateMutability": "view",
      "type": "function"
    },
    {
      "constant": true,
      "inputs": [],
      "name": "totalSupply",
      "outputs": [
        {
          "name": "",
          "type": "uint256"
        }
      ],
      "payable": false,
      "stateMutability": "view",
      "type": "function"
    },
    {
      "constant": true,
      "inputs": [],
      "name": "standard",
      "outputs": [
        {
          "name": "",
          "type": "string"
        }
      ],
      "payable": false,
      "stateMutability": "view",
      "type": "function"
    },
    {
      "constant": true,
      "inputs": [
        {
          "name": "",
          "type": "address"
        }
      ],
      "name": "balanceOf",
      "outputs": [
        {
          "name": "",
          "type": "uint256"
        }
      ],
      "payable": false,
      "stateMutability": "view",
      "type": "function"
    },
    {
      "constant": true,
      "inputs": [],
      "name": "symbol",
      "outputs": [
        {
          "name": "",
          "type": "string"
        }
      ],
      "payable": false,
      "stateMutability": "view",
      "type": "function"
    },
    {
      "inputs": [
        {
          "name": "_initialSupply",
          "type": "uint256"
        }
      ],
      "payable": false,
      "stateMutability": "nonpayable",
      "type": "constructor"
    },
    {
      "constant": false,
      "inputs": [
        {
          "name": "_to",
          "type": "address"
        },
        {
          "name": "_value",
          "type": "uint256"
        }
      ],
      "name": "transfer",
      "outputs": [
        {
          "name": "success",
          "type": "bool"
        }
      ],
      "payable": false,
      "stateMutability": "nonpayable",
      "type": "function"
    }
  ],
  "bytecode": "0x60806040526040805190810160405280600981526020017f4b697220546f6b656e00000000000000000000000000000000000000000000008152506000908051906020019061004f929190610168565b506040805190810160405280600381526020017f4b697200000000000000000000000000000000000000000000000000000000008152506001908051906020019061009b929190610168565b506040805190810160405280600e81526020017f4b697220546f6b656e2076312e30000000000000000000000000000000000000815250600290805190602001906100e7929190610168565b503480156100f457600080fd5b506040516020806107aa8339810180604052810190808051906020019092919050505080600460003373ffffffffffffffffffffffffffffffffffffffff1673ffffffffffffffffffffffffffffffffffffffff16815260200190815260200160002081905550806003819055505061020d565b828054600181600116156101000203166002900490600052602060002090601f016020900481019282601f106101a957805160ff19168380011785556101d7565b828001600101855582156101d7579182015b828111156101d65782518255916020019190600101906101bb565b5b5090506101e491906101e8565b5090565b61020a91905b808211156102065760008160009055506001016101ee565b5090565b90565b61058e8061021c6000396000f300608060405260043610610078576000357c0100000000000000000000000000000000000000000000000000000000900463ffffffff16806306fdde031461007d57806318160ddd1461010d5780635a3b7e421461013857806370a08231146101c857806395d89b411461021f578063a9059cbb146102af575b600080fd5b34801561008957600080fd5b50610092610314565b6040518080602001828103825283818151815260200191508051906020019080838360005b838110156100d25780820151818401526020810190506100b7565b50505050905090810190601f1680156100ff5780820380516001836020036101000a031916815260200191505b509250505060405180910390f35b34801561011957600080fd5b506101226103b2565b6040518082815260200191505060405180910390f35b34801561014457600080fd5b5061014d6103b8565b6040518080602001828103825283818151815260200191508051906020019080838360005b8381101561018d578082015181840152602081019050610172565b50505050905090810190601f1680156101ba5780820380516001836020036101000a031916815260200191505b509250505060405180910390f35b3480156101d457600080fd5b50610209600480360381019080803573ffffffffffffffffffffffffffffffffffffffff169060200190929190505050610456565b6040518082815260200191505060405180910390f35b34801561022b57600080fd5b5061023461046e565b6040518080602001828103825283818151815260200191508051906020019080838360005b83811015610274578082015181840152602081019050610259565b50505050905090810190601f1680156102a15780820380516001836020036101000a031916815260200191505b509250505060405180910390f35b3480156102bb57600080fd5b506102fa600480360381019080803573ffffffffffffffffffffffffffffffffffffffff1690602001909291908035906020019092919050505061050c565b604051808215151515815260200191505060405180910390f35b60008054600181600116156101000203166002900480601f0160208091040260200160405190810160405280929190818152602001828054600181600116156101000203166002900480156103aa5780601f1061037f576101008083540402835291602001916103aa565b820191906000526020600020905b81548152906001019060200180831161038d57829003601f168201915b505050505081565b60035481565b60028054600181600116156101000203166002900480601f01602080910402602001604051908101604052809291908181526020018280546001816001161561010002031660029004801561044e5780601f106104235761010080835404028352916020019161044e565b820191906000526020600020905b81548152906001019060200180831161043157829003601f168201915b505050505081565b60046020528060005260406000206000915090505481565b60018054600181600116156101000203166002900480601f0160208091040260200160405190810160405280929190818152602001828054600181600116156101000203166002900480156105045780601f106104d957610100808354040283529160200191610504565b820191906000526020600020905b8154815290600101906020018083116104e757829003601f168201915b505050505081565b600081600460003373ffffffffffffffffffffffffffffffffffffffff1673ffffffffffffffffffffffffffffffffffffffff168152602001908152602001600020541015151561055c57600080fd5b929150505600a165627a7a723058202907493f7a64531e68bf31f071bfa481cd8feee628b1fa8ef4e11928c7c07b770029",
  "source": "pragma solidity ^0.4.23;\r\n\r\ncontract DappToken {\r\n\t\r\n\r\n\t//name\r\n\tstring public name =\"Kir Token\";\r\n\tstring public symbol =\"Kir\";\r\n\tstring public standard =\"Kir Token v1.0\";\r\n\tuint256 public totalSupply; //unsigned integer\r\n\tmapping(address => uint256) public balanceOf;\r\n\t\t//allocate total supply of the token to balanceOf and who has each token. \r\n\t\t//this mapping will know who has each token\r\n\r\n\r\n\r\n\tfunction DappToken(uint256 _initialSupply) public  { \r\n\t\tbalanceOf[msg.sender] = _initialSupply;\r\n\t\t//store number of tokens that will exist\r\n\t\ttotalSupply = _initialSupply; //state variale. Every time updated will write to blockchain\r\n\t\t//allocate initial supply\r\n\r\n\t}\r\n\t//Transfer\r\n\tfunction transfer(address _to, uint256 _value) public returns (bool success) {\r\n        require(balanceOf[msg.sender] >= _value);\r\n\t\t\r\n\t\t//Return a Boolean\r\n\t\t//Transfer Event\r\n\t}\r\n}//Exception if account doesn't have enough",
  "sourcePath": "C:\\token_sale\\contracts\\DappToken.sol",
  "compiler": {
    "name": "solc",
    "version": "0.4.24+commit.e67f0147.Emscripten.clang"
  },
  "schemaVersion": "2.0.1",
  "updatedAt": "2018-07-12T06:33:05.303Z"
}