{
  "contractName": "DappToken",
  "abi": [
    {
      "constant": true,
      "inputs": [],
      "name": "totalSupply",
      "outputs": [
        {
          "name": "",
          "type": "uint256"
        }
      ],
      "payable": false,
      "stateMutability": "view",
      "type": "function"
    },
    {
      "inputs": [],
      "payable": false,
      "stateMutability": "nonpayable",
      "type": "constructor"
    }
  ],
  "bytecode": "0x608060405234801561001057600080fd5b50620f4240600081905550609e806100296000396000f300608060405260043610603f576000357c0100000000000000000000000000000000000000000000000000000000900463ffffffff16806318160ddd146044575b600080fd5b348015604f57600080fd5b506056606c565b6040518082815260200191505060405180910390f35b600054815600a165627a7a72305820c8311202841f85c9b8d126dee4d1db13c9118baaac9587a1b1e8b80064769daa0029",
  "source": "pragma solidity ^0.4.23;\r\n\r\ncontract DappToken {\r\n\t\r\n\t\r\n\t//constructor\r\n\t//Set the total number of tokens\r\n\t//Read the total number of tokens\r\n\tuint256 public totalSupply; //unsigned integer\r\n\tfunction DappToken() public  {\r\n\t\t//store number of tokens that will exist\r\n\t\ttotalSupply = 1000000; //state variale. Every time updated will write to blockchain\r\n\r\n\t}\r\n}",
  "sourcePath": "C:\\token_sale\\contracts\\DappToken.sol",
  "compiler": {
    "name": "solc",
    "version": "0.4.24+commit.e67f0147.Emscripten.clang"
  },
  "schemaVersion": "2.0.1",
  "updatedAt": "2018-07-10T15:15:48.906Z"
}